:020000040800F2
:10000000FFFF012095D5010851110008611100087A
:100010006911000871110008791100080000000042
:10002000000000000000000000000000555E000815
:1000300081110008000000003560000891110008DF
:10004000E5D50108E5D50108E5D50108E5D50108A4
:10005000E5D50108E5D50108D1110008E111000836
:10006000E5D50108E5D50108E5D50108E5D5010884
:10007000E5D50108E5D50108E5D50108E5D5010874
:10008000E5D50108E5D50108E5D501080000000027
:10009000000000000000000000000000E5D501089D
:1000A000E5D50108E5D50108E5D50108E5D5010844
:1000B000E5D50108E5D50108E5D50108F1110008ED
:1000C00005120008E5D50108E5D50108E5D50108C8
:1000D000E5D50108E5D50108291200080000000057
:1000E00019120008E5D50108E5D501080000000057
:1000F000000000000000000000000000E5D501083D
:1001000000000000E5D50108BD110008E5D5010893
:1001100000000000000000000000000000000000DF
:10012000E5D50108E5D50108E5D50108E5D50108C3
:10013000E5D50108000000000000000000000000FC
:10014000000000000000000000000000AD110008E9
:10015000E5D50108E5D50108E5D501083D120008FF
:10016000E5D50108E5D50108000000000000000009
:10017000000000000000000000000000000000007F
:1001800000000000E5D501080000000000000000AC
:08019000E5D50108E5D50108E1
:10019800044B05481B1A062B02D9044B03B1184718
:1001A800704700BF87080020840800200000000076
:1001B80005490648091A891001EBD171491002D086
:1001C800034B03B1184770478408002084080020B7
:1001D8000000000010B5064C237843B9FFF7D8FF9C
:1001E800044B13B10448AFF300800123237010BD02
:1001F800840800200000000000DE010808B5084B54
:100208001BB108490848AFF300800848036813B9D0
:10021800BDE80840CCE7064B002BF9D09847F7E734
:10022800000000008808002000DE01088408002083
:100238000000000080B584B000AF78600023FB7335
:10024800324B1B78002B5DD0FB7B002B3FD1304B12
:10025800186800234FF0FF32002103F0C5FE2D4B34
:1002680078221A602C4B78221A60294B18680023D0
:100278000022002103F080FD284B186800234FF06E
:10028800FF32002103F0B0FE254B1B881BB2B3F5EB
:10029800FA6F0ADC224B5B881BB2B3F5FA6F04DCF9
:1002A800204B1B881BB2182B09DC1C4B1868002339
:1002B8000022002103F060FD0123FB7322E0174BAD
:1002C800186800230022002103F056FD1AE0104BA5
:1002D800186800234FF0FF32002103F085FE0D4B14
:1002E80078221A600C4B50221A60094B18680023B8
:1002F8000022002103F040FD4FF4FA6004F022FBD5
:100308000023FB73642004F01DFB99E7B00800206C
:10031800A40800200000002004000020A0080020FD
:10032800DC5B0020D85B002080B582B000AF78602D
:10033800E22001F0F5FFE32001F0F2FF462004F08F
:1003480001FB124B186800234FF0FF32002103F025
:100358004BFE0F4801F04CFAE22001F0F3FF034690
:100368009AB20C4B1A80E32001F0ECFF03469AB2D4
:10037800084B5A80054B186800230022002103F01F
:10038800FBFC1E2004F0DEFAD2E700BFA008002024
:10039800DC5B0020D85B002080B586B000AF7860B9
:1003A8000023FB7502E00A2004F0CCFA07F10B03E6
:1003B800184602F021FB0346002BF4D0FB7ADBB28F
:1003C8005BB2002BC0F2D681FB7A03F04003002B0E
:1003D80000F08281A94B1B78002B00F0FB81FB7A8F
:1003E80003F02003002B00F0F880FB7A03F01003E1
:1003F800002B15D0A24B186800234FF0FF320021C4
:1004080003F0F2FD9F4B64221A609F4B64221A602E
:100418009B4B186800230022002103F0ADFCD9E1B2
:10042800FB7A03F00103002B4DD0984B186800238A
:100438004FF0FF32002103F0D7FD954B1B881BB20C
:10044800B3F5FA6F05DC924B5B881BB2B3F5FA6F14
:100458001CDD8E4B186800230022002103F08CFC61
:10046800874B186800234FF0FF32002103F0BCFDD2
:10047800844B64221A60844B64221A60804B18688B
:1004880000230022002103F077FCA3E17F4B1868CA
:1004980000230022002103F06FFC794B1868002329
:1004A8004FF0FF32002103F09FFD764B82221A6045
:1004B800754B82221A60724B1868002300220021B3
:1004C80003F05AFC86E1FB7A03F00203002B4BD0C1
:1004D8006E4B186800234FF0FF32002103F084FDB3
:1004E8006C4B1B881BB2182B04DD6A4B5B881BB254
:1004F800182B1CDC654B186800230022002103F030
:100508003BFC5F4B186800234FF0FF32002103F0DB
:100518006BFD5C4B64221A605B4B64221A60584B7B
:10052800186800230022002103F026FC52E1574BF3
:10053800186800230022002103F01EFC504B1868A5
:1005480000234FF0FF32002103F04EFD4D4B4622B1
:100558001A604D4B46221A60494B18680023002246
:10056800002103F009FC35E1FB7A03F00403002BBA
:1005780016D0434B186800234FF0FF32002103F0D8
:1005880033FD454B6FF013021A60444B14221A6076
:100598003B4B186800230022002103F0EDFB19E112
:1005A800FB7A03F00803002B00F01481344B186821
:1005B80000234FF0FF32002103F016FD364B1422C2
:1005C8001A60364B6FF013021A602D4B186800231F
:1005D8000022002103F0D0FBFCE0FB7A03F00103CA
:1005E800002B15D0264B186800234FF0FF3200214E
:1005F80003F0FAFC234B64221A60234B64221A602E
:100608001F4B186800230022002103F0B5FBE1E02E
:10061800FB7A03F00203002B15D0194B186800234E
:100628004FF0FF32002103F0DFFC164B64221A6002
:10063800154B64221A60124B18680023002200210F
:1006480003F09AFBC6E0FB7A03F00403002B27D0E3
:100658000B4B186800234FF0FF32002103F0C4FC55
:100668000D4B00221A600D4B00221A60044B1868CB
:1006780000230022002103F07FFBABE008000020EC
:10068800A40800200000002004000020A00800208A
:10069800DC5B0020D85B0020AC080020A808002004
:1006A800FB7A03F00803002B00F094804B4B18688A
:1006B80000234FF0FF32002103F096FC484B002244
:1006C8001A60484B00221A60444B18680023002225
:1006D800002103F051FB7DE0FB7A03F02003002B9F
:1006E80021D0414B01221A70404B00221A703B4B1B
:1006F800186800234FF0FF32002103F075FC3C4BD3
:1007080064221A603B4B64221A60354B00221A603F
:10071800344B00221A60314B186800230022002154
:1007280003F02AFB56E0FB7A03F01003002B51D0AC
:100738002D4B00221A702D4B01221A70274B186876
:1007480000234FF0FF32002103F04EFC284B6422B7
:100758001A60284B64221A60214B00221A60214B30
:1007680000221A601D4B186800230022002103F0A4
:1007780003FB2FE01C4B1B78002B2BD0FB7D002BA1
:1007880002D1FB7AFB7525E0FB7A03F0C8033B61D5
:10079800FB7D03F0C803FB60104B186800234FF083
:1007A800FF32002103F020FC124A3B691360104A13
:1007B8003B6913600A4AFB681360FB685B42084A9E
:1007C8001360064B186800230022002103F0D4FAB6
:1007D8000023FB75322004F0B5F8E3E5A4080020F7
:1007E800AC080020A808002008000020B00800205D
:1007F800040000200000002080B58AB000AF7860B7
:100808003E4B3B623E4BFB6101F0E6F9034607EEC7
:10081800903AF8EEE77AC7ED067A3A4B1868002363
:100828004FF0FF32002103F0DFFB374B1A68374BDC
:100838001B68134407EE903AF8EEE77AC7ED057A9D
:10084800304B186800230022002103F095FAD7EDF9
:10085800057A9FED2F7A77EEC77A9FED2D7A67EEAE
:10086800877AC7ED057A97ED057AD7ED067A77EEA0
:10087800677AC7ED047A97ED047AD7ED087A67EEC0
:10088800277AC7ED047A3B69FB6097ED037AD7EDC9
:10089800077A67EE277AC7ED037A1E4BD3ED007A05
:1008A80097ED037A77EE277AC7ED037A194AFB6842
:1008B800136097ED037AD7ED047A37EE277ADFEDE8
:1008C800146AC7EE267A9FED127A77EE877AFDEEE4
:1008D800E77A17EE903A7B627B6AC82B01DDC82362
:1008E8007B627B6A002B01DA00237B62786A01F065
:1008F80021F8052004F026F882E700BF7731683F29
:10090800CDCCCC3DA408002004000020AC08002079
:100918000000C842B408002090B58BB000AF7860E2
:10092800514B3B62514BFB6101F0A6F9034607EEC0
:10093800903AF8EEE77AC7ED067A4D4B186800232F
:100948004FF0FF32002103F04FFB4A4B1A684A4B25
:100958001B68134407EE903AF8EEE77AC7ED057A7C
:10096800434B186800230022002103F005FAD7ED55
:10097800057A9FED427A77EEC77A9FED407A67EE67
:10098800877AC7ED057A97ED057AD7ED067A77EE7F
:10099800677AC7ED047A97ED047AD7ED087A67EE9F
:1009A800277AC7ED047A38691CF06CF903460C46BF
:1009B800C7E90234F8691CF065F903460C461A4683
:1009C8002346D7E902011CF0B1F903460C46C7E9F2
:1009D80002342B4B1B6818461CF054F903460C468E
:1009E8001A462346D7E902011BF0EEFF03460C46E0
:1009F800C7E90234D7E902011CF0F2FB0246204B9A
:100A08001A6038691CF03EF9D7E902231BF0DCFFB5
:100A180003460C46184621464FF00002194B1CF0BD
:100A2800AFFA03460C46184621464FF00002154B14
:100A38001BF0CAFF03460C46184621461CF088FBEB
:100A480003467B627B6AC82B01DDC8237B627B6A15
:100A5800002B01DA00237B62786A00F07BFF052017
:100A680003F070FF5CE700BF0DEC683FCDCCCC3DD8
:100A7800A408002000000020A80800200000C842A8
:100A8800B80800200000594080B584B000AF7860F5
:100A980007F1080207F10C031146184601F082FA23
:100AA800BB891BB29B2B0DDDBB891BB2B3F5967FAF
:100AB80008DA3A4B1B889BB2013B9BB29AB2374B80
:100AC8001A800BE0BB891BB2902B07DC334B1B88C9
:100AD8009BB201339BB29AB2304B1A80FB891BB28E
:100AE8003C2B08DD2E4B1B889BB201339BB29AB27C
:100AF8002B4B1A800BE0FB891BB2312B07DC284BF0
:100B08001B889BB2013B9BB29AB2254B1A80234BA0
:100B18001B881BB2092B03DC204B0A221A8009E030
:100B28001E4B1B881BB2B3F5827F03DD1B4B4FF4B2
:100B380082721A801A4B1B881BB2092B03DC184BD4
:100B48000A221A8007E0164B1B881BB2642B02DDB1
:100B5800134B64221A80114B1B881BB2184601F0F4
:100B68009BF9322005F0FCFB0D4B1B881BB2184685
:100B780001F07CF9BB891BB2FA8912B219460948FF
:100B880002F010F9054B1B8819B2054B1B881BB2E4
:100B98001A46054802F006F97AE700BF0A00002065
:100BA8000C00002018DE010828DE010880B584B09A
:100BB80004AF05F041FB00F067FD01F065FE01F0B0
:100BC8008FFE01F0DFFB02F04BFE01F095F900F01B
:100BD800DDFD00F0D1FE00F04FFE01F0E9F84FF422
:100BE8007A7005F0BDFB00230393002302930023D2
:100BF80001930123009300234FF4007235493648CE
:100C080003F07AFD0023039300230293002301934A
:100C18000123009300234FF400723049304803F059
:100C28006BFD002303930023029300230193022307
:100C3800009300234FF400722A492B4803F05CFD0F
:100C480000230393002302930023019302230093BC
:100C580000234FF400722549254803F04DFD002379
:100C6800039300230293002301930223009300239C
:100C78004FF400721F49204803F03EFD0322002173
:100C8800012002F069FF02461C4B1A601B4B1B68CF
:100C9800002B06D0194B186800230022002103F00E
:100CA8006BF803220021012002F056FF0246144B84
:100CB8001A60134B1B68002B06D0114B18680023D1
:100CC8000022002103F058F804F08EF8002318469B
:100CD800BD4680BD38DE01083D0200084CDE010833
:100CE800310300085CDE0108A103000870DE01087A
:100CF8002109000880DE010801080008A00800207A
:100D0800A408002080B483B000AF78603960FEE7A3
:100D180080B400AF00BFBD465DF8047B704700BFDC
:100D280080B400AF00BFBD465DF8047B704700BFCC
:100D380080B500AF154A154B1B6B43F001031363D5
:100D4800124A124B1B6B43F0020313630F4A0F4BFB
:100D58001B6B43F00403136300F01AF800F046F825
:100D680000F06CF800F0A2F800F096F900F0F6F840
:100D780000F0D4F800F05EF900F0A2F900F0C0F934
:100D880000F002F900F020F900BF80BD00380240F1
:100D980080B586B000AF134A124B1B6B43F00103BA
:100DA8001363104A0F4B1B6C43F4003313640C237A
:100DB8007B600223BB600123FB6000233B610723A8
:100DC8007B613B1D1946084806F03EFA00220921BE
:100DD800262006F0E3FE262006F0FCFE00BF1837AA
:100DE800BD4680BD003802400000024080B586B094
:100DF80000AF104A0F4B5B6C43F020035364C023D1
:100E08007B600223BB600123FB6000233B61082356
:100E18007B613B1D1946084806F016FA00220A2194
:100E2800472006F0BBFE472006F0D4FE00BF183767
:100E3800BD4680BD003802400008024080B586B03B
:100E480000AF164A154B5B6C43F0010353644FF433
:100E580040737B600223BB600123FB6001233B617D
:100E680001237B613B1D19460D4806F0EDF902236D
:100E78007B600C4BBB600023FB603B1D19460A4896
:100E880006F0E2F900220721072006F087FE072076
:100E980006F0A0FE00BF1837BD4680BD00380240EE
:100EA80000000240000021100008024080B586B012
:100EB80000AF164A154B1B6C43F001031364032360
:100EC8007B600223BB600123FB6001233B6101239C
:100ED8007B613B1D19460E4806F0B6F901237B607D
:100EE8000C4BBB600023FB603B1D19460A4806F00B
:100EF800ABF900220621062006F050FE062006F077
:100F080069FE00BF1837BD4680BD00BF00380240EB
:100F180000000240000021100004024080B586B0A5
:100F280000AF4FF400537B600A4BBB600023FB60AB
:100F38003B1D1946084806F087F90022052128209C
:100F480006F02CFE282006F045FE00BF1837BD46E7
:100F580080BD00BF000021100008024080B586B0A7
:100F680000AF20237B600123BB600123FB600223C9
:100F78003B613B1D1946034806F066F900BF183768
:100F8800BD4680BD0000024080B586B000AF0C4A67
:100F98000B4B1B6C43F00203136430237B6002236A
:100FA800BB600123FB6001233B6102237B613B1D86
:100FB8001946044806F048F900BF1837BD4680BDF9
:100FC800003802400004024080B586B000AF164ADF
:100FD800154B1B6C43F004031364C0237B6002238E
:100FE800BB600123FB6001233B6102237B613B1D46
:100FF80019460E4806F028F94FF400437B60012398
:10100800BB600123FB6002233B613B1D1946084876
:1010180006F01AF901224FF40041054806F06EFB6C
:1010280000BF1837BD4680BD0038024000040240AA
:101038000000024080B586B000AF154A144B1B6C07
:1010480043F4001313644FF440737B601223BB60B6
:101058000023FB6003233B6104237B613B1D19468E
:101068000C4806F0F1F800220221202006F096FD37
:10107800202006F0AFFD00220B211F2006F08EFD78
:101088001F2006F0A7FD00BF1837BD4680BD00BF72
:10109800003802400004024080B500AF074A074B01
:1010A8001B6C43F00803136400220C21322006F065
:1010B80075FD322006F08EFD00BF80BD003802406D
:1010C80080B586B000AF0C4A0B4B5B6C43F4805381
:1010D8005364F0237B600223BB600123FB6003237E
:1010E8003B6105237B613B1D1946044806F0ACF8BB
:1010F80000BF1837BD4680BD0038024000000240DE
:1011080080B586B000AF0A4A094B5B6C43F4807324
:1011180053640C237B600323BB600023FB603B1DEF
:101128001946044806F090F800BF1837BD4680BD40
:10113800003802400008024080B400AF00BFBD463E
:101148005DF8047B704700BF80B400AF00BFBD46A8
:101158005DF8047B704700BF80B400AFFEE700BFB6
:1011680080B400AFFEE700BF80B400AFFEE700BF69
:1011780080B400AFFEE700BF80B400AF00BFBD463B
:101188005DF8047B704700BF80B500AF04F0F0FC49
:101198000346012B01D004F077FF05F0C7F800BF24
:1011A80080BD00BF80B400AF00BFBD465DF8047BC2
:1011B800704700BF80B500AF024811F03BFF00BF89
:1011C80080BD00BFE05B002080B500AF012006F0C5
:1011D800E7FA00BF80BD00BF80B500AF022006F06F
:1011E800DFFA00BF80BD00BF80B500AF02481AF02B
:1011F8006BF900BF80BD00BF705D002080B500AFF7
:1012080002481AF0D3FA00BF80BD00BF705D00200D
:1012180080B500AF4FF4005006F0C2FA00BF80BDA1
:1012280080B500AF024807F00FFB00BF80BD00BFCC
:10123800985B002080B500AF024807F005FB00BFAF
:1012480080BD00BF585B002080B400AF164A164B23
:10125800D3F8883043F47003C2F88830134A134B2C
:101268001B6843F001031360104B00229A600F4A79
:101278000E4B1B6823F0847323F4803313600B4BED
:101288000B4A5A60094A094B1B6823F480231360F0
:10129800064B0022DA60044B4FF000629A6000BFF0
:1012A800BD465DF8047B704700ED00E00038024061
:1012B8001030002480B487B000AF00233B610023C6
:1012C8007B610223FB600023BB6002237B60334BFE
:1012D8009B6803F00C033B613B69042B07D0082B88
:1012E80009D0002B3FD12E4B2E4A1A603FE02C4BE1
:1012F8002D4A1A603BE0294B5B6803F480039B0D81
:10130800BB60264B5B6803F03F037B60BB68002B28
:101318000DD0254A7B68B2FBF3F2204B596847F69B
:10132800C0730B409B0903FB02F37B610CE01D4A71
:101338007B68B2FBF3F2194B596847F6C0730B4050
:101348009B0903FB02F37B61144B5B6803F4403396
:101358001B0C01335B00FB607A69FB68B2FBF3F39B
:101368000F4A136003E00E4B0E4A1A6000BF0B4B86
:101378009B6803F0F0031B090C4AD35CDBB23B61AA
:10138800074B1A683B6922FA03F3054A136000BF4A
:101398001C37BD465DF8047B704700BF003802402B
:1013A800100000200024F40000127A00140000202D
:1013B80080B485B000AF7860154B1B68002B02D154
:1013C800134B144A1A60124B1B68FB60124B1B68C4
:1013D8001B68BB60BB68A3F50073BB600C4B1A6845
:1013E8007B681A44BB689A4205D90C4B0C221A60D8
:1013F8004FF0FF3306E0064B1A687B681344044A33
:101408001360FB6818461437BD465DF8047B7047C7
:10141800BC080020485E002008ED00E0445E002083
:1014280080B483B000AF786039603B68002B05D08A
:101438003B6800221A603B6800225A600023184665
:101448000C37BD465DF8047B704700BF80B400AF21
:1014580000BFBD465DF8047B704700BF80B400AF95
:1014680001231846BD465DF8047B704780B483B0FD
:1014780000AF78603960054B16221A604FF0FF33D1
:1014880018460C37BD465DF8047B7047445E002063
:1014980080B582B000AF78604FF0FF317868FFF711
:1014A800E5FFFEE780B586B000AFF860B9607A6006
:1014B80000237B6109E0BB685A1CBA601B78184698
:1014C800AFF300807B6901337B617A697B689A425C
:1014D800F1DB7B6818461837BD4680BD80B483B001
:1014E80000AF78604FF0FF3318460C37BD465DF803
:1014F800047B704780B483B000AF786039603B6884
:101508004FF400525A60002318460C37BD465DF868
:10151800047B704780B483B000AF7860012318461D
:101528000C37BD465DF8047B704700BF80B485B0BA
:1015380000AFF860B9607A60002318461437BD46DA
:101548005DF8047B704700BF90B587B000AFF860C6
:10155800B9607A6000237B610AE0BC68631CBB60E9
:10156800AFF300800346DBB223707B6901337B61F4
:101578007A697B689A42F0DB7B6818461C37BD465F
:1015880090BD00BF0EB480B482B000AF78604FF059
:10159800FF3318460837BD465DF8047B03B0704733
:1015A80080B483B000AF7860054B0A221A604FF010
:1015B800FF3318460C37BD465DF8047B704700BF03
:1015C800445E002080B483B000AF7860054B0222EF
:1015D8001A604FF0FF3318460C37BD465DF8047BA0
:1015E800704700BF445E002080B483B000AF7860CD
:1015F8004FF0FF3318460C37BD465DF8047B704743
:1016080080B483B000AF786039603B684FF4005213
:101618005A60002318460C37BD465DF8047B7047B6
:1016280080B483B000AF78603960054B1F221A6020
:101638004FF0FF3318460C37BD465DF8047B704702
:10164800445E002080B400AF044B0B221A604FF0B8
:10165800FF331846BD465DF8047B7047445E0020A2
:1016680080B485B000AFF860B9607A60054B0C2291
:101678001A604FF0FF3318461437BD465DF8047BF7
:10168800704700BF445E002080B592B000AF1F4A8B
:101698001E4B1B6C43F0805313641D4A1C4B1B6884
:1016A80023F4404343F40043136002233B600123C7
:1016B800FB6010233B610223BB610023FB61102305
:1016C8003B624FF4A8737B620423BB620723FB626F
:1016D8003B46184604F07AFF034687F847300F2345
:1016E8003B6302237B630023BB634FF48053FB639C
:1016F80000233B6407F130030221184605F0BEF9C8
:1017080097F8473018464837BD4680BD0038024034
:101718000070004080B582B000AF114B1B68114AC1
:10172800A2FB03235B0B013B7B600F4B0F4A1A6044
:101738000D4B40F2E732DA600B4A7B6853600A4B84
:1017480000221A61084B00229A6007480FF0D8FC63
:1017580005480FF089FD00BF0837BD4680BD00BFB2
:10176800100000205917B7D1E05B0020000C0040A2
:1017780080B582B000AF78602021034805F0D6FF1D
:1017880000BF0837BD4680BD0000024080B500AFED
:10179800154B164A1A60144B00225A60124B00224D
:1017A800DA60114B00229A600F4B00229A610E4BAF
:1017B80000221A610C4B02221A620B4B00225A6259
:1017C800094B02229A62084B0022DA62064B002279
:1017D8001A63054B0022DA61034B00225A61024862
:1017E80014F004FD00BF80BD605C002000200140B3
:1017F80090B583B000AF78601D4B0C221A601C4B6B
:1018080001225A601A4B03229A601949194815F0A7
:10181800F7F8184814F044FD0A21164814F0C4FDDE
:10182800144815F0B7F803461A467B681A60104B3F
:101838000D221A600E4B01225A600D4B03229A604A
:101848000B490C4815F0DCF80A4814F029FD0A2168
:10185800084814F0A9FD7B681C1D064815F09AF885
:1018680003462360002318460C37BD4690BD00BFD1
:10187800A45C0020605C002080B582B000AF00232B
:101888007B60264B1B68264AA2FB03239B0D013B6A
:101898007B60244B244A1A60224BC722DA60214A13
:1018A8007B6853601F4B00221A611E4B00229A600E
:1018B8001C480FF025FC1D4B60221A601B4B0522AB
:1018C8005A601A4B00229A60184B00221A610022B3
:1018D8001649144811F0B2FD04221449114811F0B8
:1018E800ADFD104B1B6864225A630E4B1B683433E2
:1018F800043364221A6000210A4810F025F90421F3
:10190800084810F021F900224FF40041084805F07A
:10191800F5FE00BF0837BD4680BD00BF100000209F
:101928006BCA5F6BC008002000080040FC0800205C
:101938000000024080B483B000AF7860044B1B689D
:101948007A685A6300BF0C37BD465DF8047B704760
:10195800C008002080B483B000AF7860054B1B68D6
:10196800343304337A681A6000BF0C37BD465DF81B
:10197800047B7047C008002080B58AB000AF354BA3
:10198800354A1A60334B00225A60324B00229A6063
:10199800304B41F28832DA602E4B00221A61032361
:1019A8007B600023BB600123FB6008233B610F239E
:1019B8007B610023BB610123FB6108233B620F238A
:1019C8007B623B1D1946234810F0DEFF214B1B6844
:1019D80000225A6200211F4811F0ACF804211D486A
:1019E80011F0A8F81D4B4FF080421A601B4B0022E3
:1019F8005A601A4B00229A60184B41F28832DA601A
:101A0800164B00221A6103237B600023BB6001236D
:101A1800FB6008233B610F237B610023BB6101232B
:101A2800FB6108233B620F237B623B1D19460B4871
:101A380010F0AAFF094B1B6800225A6200210748D0
:101A480011F078F80421054811F074F800BF283720
:101A5800BD4680BD345D002000000140F85C0020D8
:101A680080B485B000AF78600023FB600C4B5B6AE4
:101A7800FB607B6804337A6812681A60FB6841F679
:101A88009B1202FB03F3074AA2FB03239B091A4696
:101A98007B681A6000BF1437BD465DF8047B704749
:101AA80000000140D34D621080B485B000AF78606B
:101AB8000023FB604FF080435B6AFB607B68043364
:101AC8007A6812681A60FB6841F69B1202FB03F3FE
:101AD800064AA2FB03239B091A467B681A6000BFCB
:101AE8001437BD465DF8047B704700BFD34D6210C4
:101AF80080B483B000AF0023FB800C4B5B6AFB8093
:101B08000B4B1B681B6803F01003002B06D0FB88E7
:101B1800A3F59C53083B9BB29BB200E0FB881BB229
:101B280018460C37BD465DF8047B7047000001403D
:101B3800345D002080B483B000AF0023FB804FF0F9
:101B480080435B6AFB800B4B1B681B6803F0100328
:101B5800002B06D0FB88A3F59C53083B9BB29BB295
:101B680000E0FB881BB218460C37BD465DF8047BC5
:101B7800704700BFF85C002090B583B000AF002329
:101B88007B60084B1B6841F2883202FB03F4FFF7C5
:101B9800AFFF034623447B607B6818460C37BD467D
:101BA80090BD00BF1809002090B583B000AF002396
:101BB8007B60084B1B6841F2883202FB03F4FFF795
:101BC800B9FF034623447B607B6818460C37BD4643
:101BD80090BD00BF1C09002080B500AF2348FFF767
:101BE8003FFF224B1B689AB2204B5B689BB2D31A0B
:101BF8009BB29AB21E4B1A801D4B1B881BB2002B3E
:101C08000FDB1B4B1B881BB2B3F5804F18DB184B3F
:101C18001B889BB2A3F500439BB29AB2144B1A805F
:101C28000EE0134B1B881BB213F5804F08DA104BDC
:101C38001B889BB2A3F500439BB29AB20C4B1A8047
:101C48000B4B1B881BB24EF6602202FB03F3094ABA
:101C580082FB03121214DB17D31A9AB2044B1A80B0
:101C6800034B1B881BB2184680BD00BF200900200B
:101C7800280900203533676680B500AF2348FFF791
:101C880013FF224B1B689AB2204B5B689BB2D31A96
:101C98009BB29AB21E4B1A801D4B1B881BB2002B9D
:101CA8000FDB1B4B1B881BB2B3F5804F18DB184B9F
:101CB8001B889BB2A3F500439BB29AB2144B1A80BF
:101CC8000EE0134B1B881BB213F5804F08DA104B3C
:101CD8001B889BB2A3F500439BB29AB20C4B1A80A7
:101CE8000B4B1B881BB24EF6602202FB03F3094A1A
:101CF80082FB03121214DB17D31A9AB2044B1A8010
:101D0800034B1B881BB2184680BD00BF2C0900205E
:101D1800340900203533676680B500AF0F4B1B6868
:101D28001B6803F01003002B05D00D4B1B68013B0B
:101D38000B4A136004E00A4B1B680133084A13601E
:101D4800064B1B6800225A620021044810F0F2FE7C
:101D58000421024810F0EEFE00BF80BD345D002073
:101D68001809002080B500AF0F4B1B681B6803F0F3
:101D78001003002B05D00D4B1B68013B0B4A136069
:101D880004E00A4B1B680133084A1360064B1B68C2
:101D980000225A620021044810F0CCFE04210248B7
:101DA80010F0C8FE00BF80BDF85C00201C090020B0
:101DB80080B582B000AF00237B60254B1B681B09F0
:101DC800244AA2FB0323DB09013B7B60224B234A05
:101DD8001A60214B40F2E732DA601F4A7B68536091
:101DE8001D4B00221A611C4B00229A601A480FF002
:101DF80087F91B4B60221A60194B05225A60184B51
:101E080002229A60164B00221A61002214491248D5
:101E180011F014FB042212490F4811F00FFB0E4B6E
:101E28001B68104A12685A630B4B1B68343304331F
:101E38000D4A12681A60002107480FF085FE042138
:101E480005480FF081FE00BF0837BD4680BD00BFC2
:101E580010000020C55A7C0A380900200004004000
:101E680074090020280000202400002080B483B0DA
:101E780000AF7860064A7B681360064B1B687A6877
:101E88005A6300BF0C37BD465DF8047B704700BF3E
:101E9800280000203809002080B483B000AF7860A3
:101EA800074A7B681360074B1B68343304337A682E
:101EB8001A6000BF0C37BD465DF8047B704700BF51
:101EC800240000203809002080B400AF034B1B68B1
:101ED8001846BD465DF8047B704700BF2800002007
:101EE80080B400AF034B1B681846BD465DF8047B01
:101EF800704700BF2400002080B500AF4FF4966003
:101F08001BF06EFB03461A46014B1A6000BF80BDEA
:101F1800DC09002080B500AFC8226421C82000F089
:101F2800E1F9012000F02AF9174B1B681B881946B4
:101F3800164801F001F9144B1B685B8819461448D0
:101F480001F0FAF8104B1B689B881946114801F0FC
:101F5800F3F80D4B1B68DB8819460F4801F0ECF8C5
:101F6800094B1B681B8919460C4801F0E5F8064B1C
:101F78001B685B8919460A4801F0DEF84FF4FA70CD
:101F880004F0EEF9C8E700BFDC09002090DE010884
:101F9800A4DE0108B0DE0108BCDE0108CCDE0108C1
:101FA800DCDE010880B582B000AF786039600120BE
:101FB80000F0E4F80C4B1B685A887B681A807B6831
:101FC8000233094A126892881A80074B1B68DA881C
:101FD8003B681A803B680233034A126812891A80E8
:101FE80000BF0837BD4680BDDC09002080B582B03F
:101FF80000AF00237B711C4B1B78002B1CD05B208F
:1020080001F060FC0346FB80184B1B785A1CD1B2C8
:10201800164A11701A46164B9B5C7B71124B1B7843
:10202800013BDAB2104B1A70104B1B78402B08D1C9
:102038000E4B00221A7004E05A2001F043FC0346BC
:10204800FB80FB881B02FB807B79184601F03AFC79
:1020580003463B713B799AB2FB881343FB80FB88AC
:1020680018460837BD4680BDD0090020D209002097
:102078009009002080B485B000AF786039601B4BB0
:102088001B781A463B681344402B02DD4FF0FF33A0
:1020980026E03B68DAB2154B1B781344DAB2134BCF
:1020A8001A700023FB6016E0114B1B785A1CD1B242
:1020B8000F4A11701946FB687A6813441A780D4B59
:1020C8005A540B4B1B78402B02D1094B00221A7033
:1020D800FB680133FB60FA683B689A42E4DB3B68C3
:1020E80018461437BD465DF8047B7047D0090020B8
:1020F800D10900209009002080B582B000AF4FF6CA
:10210800FF73FB80FFF772FF0346BB80BB88002B81
:1021180004D1FB88002B01D1002328E0BB884AF6B4
:102128005522934209D1FB884AF65522934204D19D
:10213800114B00221A70012319E0BB884AF6562277
:10214800934209D1FB884AF65522934204D10A4B9F
:1021580001221A7001230AE0BB8845F2AA52934271
:1021680002D1002001F0AEFBBB88FB80CAE718460D
:102178000837BD4680BD00BFD809002080B586B0AD
:1021880000AF0346FB80484B1B68002B06D1FFF7C6
:10219800B3FF0346002B04D1002380E0424B00220A
:1021A8001A600023BB8272E0FFF720FF03463B82E0
:1021B8003B8A4AF65522934207D13B4B01221A60CB
:1021C8003A4B00221A70BB8A69E03B8A4AF65622CB
:1021D800934207D1344B01221A60344B01221A7002
:1021E800BB8A5CE03B8A002B01D1BB8A57E0304BAD
:1021F8001968BA8A13465B0013449B000B44FB60C2
:102208000023FB7500237B821BE0284B1B78002BE7
:1022180006D1FB7D042B03D9FB6800225A8113E009
:10222800FFF7E4FE03467B817A8A7B8913447B822D
:10223800FB7D5B00FA6813447A891A80FB7D0133C1
:10224800FB75FB7D052BE0D93A8A7B8A9A4203D13C
:10225800BB8A0133BB8202E0164800F06DFFFFF72E
:10226800C5FE03467B817B894AF65522934203D1FA
:102278000E4B00221A700AE07B894AF656229342D6
:1022880003D10A4B01221A7001E0BB8A07E0BA8A1F
:10229800FB889A4202D2BB8A632B85D90023184651
:1022A8001837BD4680BD00BFD4090020D8090020DA
:1022B800DC090020ECDE010880B584B000AF0346DD
:1022C800FB7100233B73FE237B73FB79BB7307F120
:1022D8000C0303211846FFF7CDFE034618461037B6
:1022E800BD4680BD80B584B000AF0346FB710B4688
:1022F800BB7113467B7100233B72FD237B72FB7914
:10230800BB72BB79FB727B793B7307F1080305212C
:102318001846FFF7AFFE034618461037BD4680BD86
:1023280080B584B000AF0346FB805123FB7307F1EF
:102338000F02F8880123002100F0B4F800BF10371D
:10234800BD4680BD80B584B000AF0346FB8007F171
:102358000D02F8880123022100F072F807F10C023F
:10236800F8880123032100F06BF87B7B9BB21B02EA
:102378009AB23B7B9BB21344FB81FB89184610370A
:10238800BD4680BD80B500AF104B114A1A600F4B97
:10239800104A5A600D4B00229A600C4B0222DA60F8
:1023A8000A4B4FF480421A61084B00225A61074BCE
:1023B800FF229A61054B0022DA61044B00221A625F
:1023C800024817F009FA00BF80BD00BF705D002009
:1023D80000540040A086010080B588B002AF0346D3
:1023E800B9607A60FB817B689AB2F98964230093AB
:1023F8001346BA68044817F001FB03467B617B6902
:1024080018461837BD4680BD705D002080B588B07D
:1024180002AF0346B9607A60FB817B689AB2F9899A
:10242800642300931346BA68044817F09BFB0346DD
:102438007B617B6918461837BD4680BD705D0020FA
:1024480080B588B002AFBA607B600346FB810B465B
:102458007B737B7BFB7407F11302F9896423009378
:1024680001230F4817F0CAFA03467B617B69002BEA
:102478000FD17B6898B27B68642202FB03F3F98969
:1024880000930346BA68064817F06CFB03467B6165
:1024980000E000BF7B6918461837BD4680BD00BF05
:1024A800705D002080B58CB002AFBA607B600346D7
:1024B800FB810B467B737B7B3B7507F11403013370
:1024C8007A68B96818461AF0DBFE7B689BB201335C
:1024D80098B207F11402F98964230093034605486A
:1024E80017F08CFA03467B627B6A18462837BD468C
:1024F80080BD00BF705D002080B584B000AF03468A
:10250800FB800B467B7113463B717B793B733B79B0
:102518007B7300BF07F10C02F9880223084817F003
:102528002FFE0346002BF5D100BF054819F062FACB
:102538000346012BF9D100BF1037BD4680BD00BF4F
:10254800705D002080B584B000AFBA607B60034640
:10255800FB810B467B7300BF07F10D02F98901234C
:10256800114817F00DFE0346002BF5D100BF0E48A9
:1025780019F040FA0346012BF9D100BF7B689BB2E2
:10258800F989BA68084817F06DFE0346002BF5D1A3
:1025980000BF054819F02EFA0346012BF9D100BFF8
:1025A8001037BD4680BD00BF705D002080B586B085
:1025B80002AF0346FB800B46BB801346FB70BB880B
:1025C8001B0A9BB2DBB23B72BB88DBB27B72FB7827
:1025D800BB7207F10802F9886423009303230548B6
:1025E80017F00CFA0346FB60FB6818461037BD4627
:1025F80080BD00BF705D002080B586B002AF034685
:10260800FB800B46BB8013467B80BB881B0A9BB2B2
:10261800DBB23B72BB88DBB27B727B881B0A9BB246
:10262800DBB2BB727B88DBB2FB7207F10802F98868
:10263800642300930423054817F0E0F90346FB6080
:10264800FB6818461037BD4680BD00BF705D00208E
:1026580080B586B002AF03463A60FB800B46BB806C
:10266800BB881B0A9BB2DBB23B72BB88DBB27B72B6
:102678003B681B0EDBB2BB723B681B0CDBB2FB7208
:102688003B681B0ADBB23B733B68DBB27B7307F129
:102698000802F988642300930623054817F0AEF969
:1026A8000346FB60FB6818461037BD4680BD00BF77
:1026B800705D002080B586B002AF03463A60FB80AB
:1026C8000B46BB80BB881B0A9BB2DBB23B72BB8844
:1026D800DBB27B7207F10802F988642300930223B6
:1026E8000E4817F08BF90346FB60FB68002B10D1EE
:1026F80007F10802F988642300930123074817F0BB
:1027080031FA0346FB60FB68002B02D13A7A3B683A
:102718001A70FB6818461037BD4680BD705D0020F2
:1027280080B586B002AF03463A60FB800B46BB809B
:10273800BB881B0A9BB2DBB23B72BB88DBB27B72E5
:1027480007F10802F988642300930223124817F05E
:1027580055F90346FB60FB68002B17D107F1080207
:10276800F9886423009302230B4817F0FBF903460A
:10277800FB60FB68002B09D13B7A1B029AB27B7A7B
:102788009BB213439BB29AB23B681A80FB68184607
:102798001037BD4680BD00BF705D002080B586B093
:1027A80002AF03463A60FB800B46BB80BB881B0A1E
:1027B8009BB2DBB23B72BB88DBB27B7207F10802CB
:1027C800F988642300930223134817F017F9034686
:1027D800FB60FB68002B19D107F10802F988642314
:1027E800009304230C4817F0BDF90346FB60FB680F
:1027F800002B0BD13B7A1A067B7A1B041A43BB7A4F
:102808001B021343FA7A1A433B681A60FB6818469E
:102818001037BD4680BD00BF705D002080B588B010
:1028280002AFBA607B600346FB810B46BB81BB8964
:102838001B0A9BB2DBB23B74BB89DBB27B7407F12A
:102848001002F9896423009302230E4817F0D6F882
:1028580003467B617B69002B0ED17B6898B27B684D
:10286800642202FB03F3F98900930346BA6805481A
:1028780017F078F903467B617B6918461837BD461F
:1028880080BD00BF705D002080B500AF114B124ABB
:102898001A60104B4FF4E1325A600E4B00229A60D6
:1028A8000C4B0022DA600B4B00221A61094B002204
:1028B8009A61084B0C225A61064B0022DA610548DE
:1028C80005F03AFA01220549024805F08BFD00BFE0
:1028D80080BD00BF985B002000440040E80900204C
:1028E80080B500AF114B124A1A60104B4FF41652C4
:1028F8005A600E4B00229A600C4B0022DA600B4B98
:1029080000221A61094B00229A61084B0C225A6175
:10291800064B0022DA61054805F00EFA0122054946
:10292800024805F05FFD00BF80BD00BF585B002076
:1029380000140140E809002080B582B000AF78603B
:1029480039603B689AB24FF6FF737968034805F01F
:1029580081FB00BF0837BD4680BD00BF585B002023
:1029680080B582B000AF7860391D4FF6FF73012241
:10297800034805F06FFB7B6818460837BD4680BDE5
:10298800585B002080B582B000AF7860391D4FF6E3
:10299800FF730122034805F05DFB00231846083742
:1029A800BD4680BD985B002080B582B000AF7860DE
:1029B800391D4FF6FF730122034805F04BFB002336
:1029C80018460837BD4680BD585B002080B582B0E8
:1029D80000AF786001220549054805F003FD054B65
:1029E80001221A7000BF0837BD4680BDE8090020E3
:1029F800585B0020EA09002080B483B000AF7860FB
:102A08000B4B1B78002B08D00A4B1A787B681A707E
:102A1800074B00221A70012303E07B6800221A701A
:102A2800002318460C37BD465DF8047B704700BF8D
:102A3800EA090020E809002080B489B000AFF860F6
:102A4800B9607A603B60FB687B61FB685A1CFA607E
:102A5800BA687968B2FBF1F1786800FB01F1521AA3
:102A680036498A5C1A70BA687B68B2FBF3F3BB60BC
:102A7800BB68002BE9D1FB6800221A70FA687B69F1
:102A8800D31A3B610023FB611AE07A69FB6913449E
:102A98001B78FB767A69FB6913443969FA698A1AE3
:102AA800013A79690A4412781A703A69FB69D31AAB
:102AB800013B7A691344FA7E1A70FB690133FB61A2
:102AC8003B695A08FB699A42DFD83A693B689A42DF
:102AD8002DD23B69FB610EE0FA693B681A443B69F9
:102AE800D31A7A6913447969FA690A4412781A7010
:102AF800FB69013BFB61FB69002BEDD0BB6A002B36
:102B080002D02023FB7601E03023FB760023FB6113
:102B180007E07A69FB691344FA7E1A70FB6901338E
:102B2800FB613A683B69D21AFB699A42F1D800BF47
:102B38002437BD465DF8047B704700BF2C00002099
:102B480080B487B000AF7860396000237B617B6810
:102B58005A1C7A601B78FB732EE0FB7B2F2B06D95F
:102B6800FB7B392B03D8FB7B303B3B6118E03B6890
:102B7800102B09D1FB7B402B06D9FB7B462B03D8B6
:102B8800FB7B373B3B610BE03B68102B17D1FB7B92
:102B9800602B14D9FB7B662B11D8FB7B573B3B6121
:102BA8003B687A6902FB03F23B6913447B617B68EB
:102BB8005A1C7A601B78FB73FB7B002BCDD17B6999
:102BC80018461C37BD465DF8047B704780B4A9B031
:102BD80000AF786087ED000A4F4BC7F88C303B6830
:102BE800C7F89C30D7ED007AFDEEE77A17EE903AF9
:102BF800C7F894300023C7F8983014E0D7ED277A47
:102C0800B2EE047A67EE877AC7ED277AD7ED277A8E
:102C1800FDEEE77A17EE903AC7F89430D7F8983077
:102C28000133C7F89830D7ED277AB2EE047A27EE49
:102C3800877AD7F8943007EE903AF8EEE77AF2EE12
:102C4800046A67EEA67AB4EE677AF1EE10FAD5D187
:102C58000023C7F89030D7F89420304B83FB021339
:102C68009910D317C91A0B469B000B445B00D11A65
:102C78000A46D7F890309B0007F1A0010B4443F8AF
:102C8800942CD7F89430254A82FB03129210DB1754
:102C9800D31AC7F89430D7F890300133C7F890307A
:102CA800D7F89430002BD6DC1AE07A68531C7B6086
:102CB800D7F890309B0007F1A0010B4453F8943CDF
:102CC800D7F88C100B441B781370D7F89020D7F8DE
:102CD80098309A4204D17B685A1C7A602E221A7066
:102CE800D7F89030013BC7F89030D7F89030002BD8
:102CF800DBDAD7F89830002B04D17B685A1C7A604D
:102D080030221A707B6800221A7000BFA437BD46B3
:102D18005DF8047B704700BF00DF010867666666E0
:102D280080B582B000AF786007E07B681B781846F2
:102D3800FFF716FE7B6801337B607B681B78002BEE
:102D4800F3D100BF0837BD4680BD00BF80B582B053
:102D580000AF786007E07B681B781846FFF712FE23
:102D68007B6801337B607B681B78002BF3D100BF45
:102D78000837BD4680BD00BF80B582B000AF78601F
:102D880007E07B681B781846FFF70EFE7B68013367
:102D98007B607B681B78002BF3D100BF0837BD46EA
:102DA80080BD00BF0FB490B597B002AF07F16403C0
:102DB8007B63B4E13B6E1B78252B40F0A881002390
:102DC8007B6401233B643B6E01333B663B6E1B789F
:102DD800302B04D13B6E01333B6600233B643B6ED2
:102DE8001B7887F84F3097F84F30302B2AD997F84F
:102DF8004F30392B26D80023FB6310E0FB6B5A1C9D
:102E0800FA6307F15002134497F84F2003F84C2C4B
:102E18003B6E01333B663B6E1B7887F84F3097F863
:102E28004F302F2B03D997F84F30392BE6D93A1D5D
:102E3800FB6B134400221A703B1D0A211846FFF74A
:102E48007FFE786497F84F30253B532B00F2598169
:102E580001A252F823F000BFB12F00080B3100087F
:102E68000B3100080B3100080B3100080B3100084A
:102E78000B3100080B3100080B3100080B3100083A
:102E88000B3100080B3100080B3100080B3100082A
:102E98000B3100080B3100080B3100080B3100081A
:102EA8000B3100080B3100080B3100080B3100080A
:102EB8000B3100080B3100080B3100080B310008FA
:102EC8000B3100080B3100080B3100080B310008EA
:102ED8000B3100080B3100080B3100080B310008DA
:102EE8000B3100080B3100080B3100080B310008CA
:102EF8000B3100080B3100080B3100080B310008BA
:102F08000B3100080B3100080B3100080B310008A9
:102F18000B3100080B3100080B3100080B31000899
:102F28000B3100080B3100080B3100080B31000889
:102F38000B3100080B3100080B3100080B31000879
:102F48000B3100080B3100080B3100080B31000869
:102F5800B92F0008E32F00080B310008C93000081A
:102F68000B3100080B3100080B3100080B31000849
:102F78000B3100080B3100080B3100080B31000839
:102F8800453000086D3000080B3100080B3100088F
:102F9800D12F00080B3100081D3000080B31000844
:102FA8000B310008A13000082520FFF7D9FCB3E059
:102FB8007B6B1A1D7A631B6887F84F3097F84F3080
:102FC8001846FFF7CDFCA7E07B6B1A1D7A631B68D8
:102FD800BB63B86BFFF7A4FE9EE07B6B1A1D7A6398
:102FE8001B68BB64BB6C002B05DA2D20FFF7B8FC0F
:102FF800BB6C5B42BB643B6C07F1100000937B6CBD
:103008000A22B96CFFF718FD07F110031846FFF7FD
:1030180087FE81E07B6B1A1D7A631B68BB643B6C7F
:1030280007F1100000937B6C0A22B96CFFF704FDCE
:1030380007F110031846FFF773FE6DE07B6B1A1D4E
:103048007A631B68BB643B6C07F1100000937B6CD0
:103058000822B96CFFF7F0FC07F110031846FFF7D8
:103068005FFE59E03020FFF77BFC7820FFF778FC03
:103078007B6B1A1D7A631B68BB643B6C07F11000FD
:1030880000937B6C1022B96CFFF7D6FC07F1100394
:103098001846FFF745FE3FE07B6B1A1D7A631B68F5
:1030A800BB643B6C07F1100000937B6C1022B96C79
:1030B800FFF7C2FC07F110031846FFF731FE2BE0BB
:1030C8007B6B073323F0070303F108027A63D3E924
:1030D8000034184621461AF063F80346BB64BB6CFB
:1030E80007EE903AF8EE677A07F11003B0EE670A38
:1030F8001846FFF76BFD07F110031846FFF710FE9F
:103108000AE03B6E1B781846FFF72AFC04E03B6E8A
:103118001B781846FFF724FC3B6E01333B663B6E79
:103128001B78002B7FF446AE00BF5437BD46BDE880
:10313800904004B0704700BF0FB490B597B002AF8D
:1031480007F164037B63B4E13B6E1B78252B40F0E9
:10315800A88100237B6401233B643B6E01333B66FB
:103168003B6E1B78302B04D13B6E01333B6600234A
:103178003B643B6E1B7887F84F3097F84F30302B05
:103188002AD997F84F30392B26D80023FB6310E053
:10319800FB6B5A1CFA6307F15002134497F84F204F
:1031A80003F84C2C3B6E01333B663B6E1B7887F86B
:1031B8004F3097F84F302F2B03D997F84F30392BD2
:1031C800E6D93A1DFB6B134400221A703B1D0A21F5
:1031D8001846FFF7B5FC786497F84F30253B532B1A
:1031E80000F2598101A252F823F000BF45330008CC
:1031F8009F3400089F3400089F3400089F3400085B
:103208009F3400089F3400089F3400089F3400084A
:103218009F3400089F3400089F3400089F3400083A
:103228009F3400089F3400089F3400089F3400082A
:103238009F3400089F3400089F3400089F3400081A
:103248009F3400089F3400089F3400089F3400080A
:103258009F3400089F3400089F3400089F340008FA
:103268009F3400089F3400089F3400089F340008EA
:103278009F3400089F3400089F3400089F340008DA
:103288009F3400089F3400089F3400089F340008CA
:103298009F3400089F3400089F3400089F340008BA
:1032A8009F3400089F3400089F3400089F340008AA
:1032B8009F3400089F3400089F3400089F3400089A
:1032C8009F3400089F3400089F3400089F3400088A
:1032D8009F3400089F3400089F3400089F3400087A
:1032E8009F3400084D330008773300089F340008E6
:1032F8005D3400089F3400089F3400089F3400089C
:103308009F3400089F3400089F3400089F34000849
:103318009F340008D9330008013400089F3400089E
:103328009F340008653300089F340008B133000853
:103338009F3400089F340008353400082520FFF723
:1033480021FBB3E07B6B1A1D7A631B6887F84F304B
:1033580097F84F301846FFF715FBA7E07B6B1A1D4F
:103368007A631B68BB63B86BFFF7F0FC9EE07B6B6E
:103378001A1D7A631B68BB64BB6C002B05DA2D2011
:10338800FFF700FBBB6C5B42BB643B6C07F11000B2
:1033980000937B6C0A22B96CFFF74EFB07F1100310
:1033A8001846FFF7D3FC81E07B6B1A1D7A631B6814
:1033B800BB643B6C07F1100000937B6C0A22B96C6C
:1033C800FFF73AFB07F110031846FFF7BFFC6DE063
:1033D8007B6B1A1D7A631B68BB643B6C07F110009A
:1033E80000937B6C0822B96CFFF726FB07F11003EA
:1033F8001846FFF7ABFC59E03020FFF7C3FA7820F6
:10340800FFF7C0FA7B6B1A1D7A631B68BB643B6CC1
:1034180007F1100000937B6C1022B96CFFF70CFBCE
:1034280007F110031846FFF791FC3FE07B6B1A1D6C
:103438007A631B68BB643B6C07F1100000937B6CDC
:103448001022B96CFFF7F8FA07F110031846FFF7D6
:103458007DFC2BE07B6B073323F0070303F10802A5
:103468007A63D3E900341846214619F099FE0346D9
:10347800BB64BB6C07EE903AF8EE677A07F110036D
:10348800B0EE670A1846FFF7A1FB07F110031846CC
:10349800FFF75CFC0AE03B6E1B781846FFF772FAF0
:1034A80004E03B6E1B781846FFF76CFA3B6E01335D
:1034B8003B663B6E1B78002B7FF446AE00BF54374B
:1034C800BD46BDE8904004B0704700BF0FB490B54A
:1034D80097B002AF07F164037B63B4E13B6E1B78DE
:1034E800252B40F0A88100237B6401233B643B6EBD
:1034F80001333B663B6E1B78302B04D13B6E0133A6
:103508003B6600233B643B6E1B7887F84F3097F887
:103518004F30302B2AD997F84F30392B26D8002333
:10352800FB6310E0FB6B5A1CFA6307F1500213446B
:1035380097F84F2003F84C2C3B6E01333B663B6EEB
:103548001B7887F84F3097F84F302F2B03D997F80F
:103558004F30392BE6D93A1DFB6B134400221A7001
:103568003B1D0A211846FFF7EBFA786497F84F30AD
:10357800253B532B00F2598101A252F823F000BFDA
:10358800D9360008333800083338000833380008C3
:103598003338000833380008333800083338000857
:1035A8003338000833380008333800083338000847
:1035B8003338000833380008333800083338000837
:1035C8003338000833380008333800083338000827
:1035D8003338000833380008333800083338000817
:1035E8003338000833380008333800083338000807
:1035F80033380008333800083338000833380008F7
:1036080033380008333800083338000833380008E6
:1036180033380008333800083338000833380008D6
:1036280033380008333800083338000833380008C6
:1036380033380008333800083338000833380008B6
:1036480033380008333800083338000833380008A6
:103658003338000833380008333800083338000896
:103668003338000833380008333800083338000886
:103678003338000833380008E13600080B370008F3
:1036880033380008F13700083338000833380008A9
:103698003338000833380008333800083338000856
:1036A80033380008333800086D37000895370008AC
:1036B8003338000833380008F93600083338000872
:1036C800453700083338000833380008C937000880
:1036D8002520FFF769F9B3E07B6B1A1D7A631B6835
:1036E80087F84F3097F84F301846FFF75DF9A7E095
:1036F8007B6B1A1D7A631B68BB63B86BFFF73CFBD7
:103708009EE07B6B1A1D7A631B68BB64BB6C002B45
:1037180005DA2D20FFF748F9BB6C5B42BB643B6CB4
:1037280007F1100000937B6C0A22B96CFFF784F94B
:1037380007F110031846FFF71FFB81E07B6B1A1D8A
:103748007A631B68BB643B6C07F1100000937B6CC9
:103758000A22B96CFFF770F907F110031846FFF752
:103768000BFB6DE07B6B1A1D7A631B68BB643B6CBB
:1037780007F1100000937B6C0822B96CFFF75CF925
:1037880007F110031846FFF7F7FA59E03020FFF762
:103798000BF97820FFF708F97B6B1A1D7A631B6811
:1037A800BB643B6C07F1100000937B6C1022B96C72
:1037B800FFF742F907F110031846FFF7DDFA3FE07B
:1037C8007B6B1A1D7A631B68BB643B6C07F11000A6
:1037D80000937B6C1022B96CFFF72EF907F11003E8
:1037E8001846FFF7C9FA2BE07B6B073323F0070372
:1037F80003F108027A63D3E900341846214619F028
:10380800CFFC0346BB64BB6C07EE903AF8EE677AD0
:1038180007F11003B0EE670A1846FFF7D7F907F16A
:1038280010031846FFF7A8FA0AE03B6E1B78184603
:10383800FFF7BAF804E03B6E1B781846FFF7B4F8B8
:103848003B6E01333B663B6E1B78002B7FF446AE24
:1038580000BF5437BD46BDE8904004B0704700BF74
:1038680080B500AF154B164A1A60144B2822DA614E
:10387800124B00229A60114B00225A610F4B002212
:103888001A610E4B00229A620C4B0722DA620B4B2C
:103898000022DA60094B00221A62084B4FF480229A
:1038A8009A61064B00225A62044B4FF482725A60A6
:1038B800024814F015F800BF80BD00BFAC5D0020C1
:1038C8000030014080B586B002AF0346FB71FB793A
:1038D8003B7307F1080207F10C01642300930123ED
:1038E800034814F059FB3B7A18461037BD4680BD93
:1038F800AC5D002080B582B000AF0346FB80FB883A
:10390800082B13D0082B04DC012B09D0022B0AD07A
:103918000FE0B3F5806F0BD0B3F5005F08D008E077
:10392800FEF720FA05E0FEF7F7F902E000BF00E035
:1039380000BF00BF0837BD4680BD00BF80B483B05C
:1039480000AF78607B6803F108027B685A607B6887
:103958004FF0FF329A607B6803F108027B68DA60F7
:103968007B6803F108027B681A617B6800221A6091
:1039780000BF0C37BD465DF8047B704780B483B048
:1039880000AF78607B6800221A6100BF0C37BD4623
:103998005DF8047B704700BF80B485B000AF7860E5
:1039A80039607B685B68FB603B68FA685A60FB6853
:1039B8009A683B689A60FB689B683A685A60FB683B
:1039C8003A689A603B687A681A617B681B685A1C77
:1039D8007B681A6000BF1437BD465DF8047B7047EA
:1039E80080B485B000AF786039603B681B68BB6005
:1039F800BB68B3F1FF3F03D17B681B69FB600CE038
:103A08007B680833FB6002E0FB685B68FB60FB686F
:103A18005B681A68BB689A42F6D9FB685A683B68C3
:103A28005A603B685B683A689A603B68FA689A60D3
:103A3800FB683A685A603B687A681A617B681B6859
:103A48005A1C7B681A6000BF1437BD465DF8047BBA
:103A5800704700BF80B485B000AF78607B681B6991
:103A6800FB607B685B687A6892689A607B689B6891
:103A78007A6852685A60FB685A687B689A4203D130
:103A88007B689A68FB685A607B6800221A61FB6849
:103A98001B685A1EFB681A60FB681B6818461437B7
:103AA800BD465DF8047B704780B584B000AF786090
:103AB80039607B68FB60FB68002B02D102F0A8FA32
:103AC800FEE702F06BFAFB681A68FB68DB6BF968C3
:103AD800096C01FB03F31A44FB685A60FB68002277
:103AE8009A63FB681A68FB689A60FB681A68FB6847
:103AF800DB6B013BF968096C01FB03F31A44FB68B3
:103B0800DA60FB684FF0FF325A64FB684FF0FF320F
:103B18009A643B68002B0ED1FB681B69002B14D0FC
:103B2800FB681033184601F09FFC0346012B0CD1AB
:103B380002F022FA09E0FB6810331846FFF7FEFE90
:103B4800FB6824331846FFF7F9FE02F047FA012311
:103B580018461037BD4680BD80B588B000AFF86004
:103B6800B9601346FB710023FB61FB68002B2AD068
:103B7800542002F0F3FAB861BB69002B23D0FB682C
:103B8800BA6802FB03F301337B61786902F0E6FA55
:103B98000246BB691A60BB691B68002B10D0BB6961
:103BA800FA68DA63BB69BA681A640121B869FFF771
:103BB8007BFFBB69FA7983F85020BB69FB6102E09F
:103BC800B86902F011FBFB69002B02D102F020FA60
:103BD800FEE7FB6918462037BD4680BD80B584B036
:103BE80000AF0346FB71542002F0B8FAF860FB6896
:103BF800002B30D0FB6800225A60FB6800221A6054
:103C0800FB6800229A60FB680022DA60FB680022E9
:103C18009A63FB680122DA63FB6800221A64FB6876
:103C28004FF0FF325A64FB684FF0FF329A64FB682A
:103C3800FA7983F85020FB6810331846FFF77EFEA8
:103C4800FB6824331846FFF779FE00230022002181
:103C5800F86800F091F8FB68002B02D102F0D8F95F
:103C6800FEE7FB6818461037BD4680BD90B585B0A5
:103C780000AF78607B68BB60BB68002B02D102F0A4
:103C8800C7F9FEE7BB685C6801F062FF03469C4227
:103C980011D1BB68DB685A1EBB68DA60BB68DB6899
:103CA800002B05D1002300220021B86800F064F839
:103CB8000123FB6001E00023FB60FB681846143712
:103CC800BD4690BD90B585B000AF786039607B681F
:103CD800BB60BB68002B02D102F09AF9FEE7BB6813
:103CE8005C6801F035FF03469C4207D1BB68DB687E
:103CF8005A1CBB68DA600123FB600EE000233A68B7
:103D08000021B86800F070F9F860FB68012B04D155
:103D1800BB68DB685A1CBB68DA60FB681846143756
:103D2800BD4690BD80B584B000AF786039607B68CF
:103D3800002B02D102F06CF9FEE73A687B689A42E0
:103D480002D902F065F9FEE7022200217868FFF740
:103D580003FFF860FB68002B02D0FB683A689A639F
:103D6800FB68002B02D102F053F9FEE7FB68184606
:103D78001037BD4680BD00BF80B58AB000AFF8607F
:103D8800B9607A603B6000237B62FB683B623B6AF8
:103D9800002B02D102F03CF9FEE7BB68002B03D1EF
:103DA8003B6A1B6C002B01D1012300E00023002B90
:103DB80002D102F02DF9FEE73B68022B03D13B6AE2
:103DC800DB6B012B01D1012300E00023002B02D182
:103DD80002F01EF9FEE701F0CBFE0346002B02D1EC
:103DE8007B68002B01D1012300E00023002B02D1C6
:103DF80002F00EF9FEE702F0D1F83B6A9A6B3B6AD3
:103E0800DB6B9A4202D33B68022B1DD13A68B96832
:103E1800386A00F0E7FAF8613B6A5B6A002B0AD05F
:103E28003B6A2433184601F01FFB0346012B07D1D8
:103E380002F0A2F804E0FB69002B01D002F09CF824
:103E480002F0CCF8012356E07B68002B03D102F086
:103E5800C5F800234FE07B6A002B06D107F1140355
:103E6800184601F0B3FB01237B6202F0B7F800F0BB
:103E7800FBFF02F093F83B6A5B6CB3F1FF3F02D1A2
:103E88003B6A00225A643B6A9B6CB3F1FF3F02D144
:103E98003B6A00229A6402F0A1F83A1D07F1140364
:103EA8001146184601F0ACFB0346002B1DD1386AB9
:103EB80000F0A4FB0346002B11D03B6A10337A684C
:103EC8001146184601F030FA386A00F01DFB00F080
:103ED800D9FF0346002B8ED102F04EF88BE7386AE3
:103EE80000F012FB00F0CEFF85E7386A00F00CFB0B
:103EF80000F0C8FF002318462837BD4680BD00BF24
:103F080080B588B000AFF860B9607A603B60FB6844
:103F1800BB61BB69002B02D102F07AF8FEE7BB68EF
:103F2800002B03D1BB691B6C002B01D1012300E0DE
:103F38000023002B02D102F06BF8FEE73B68022B4E
:103F480003D1BB69DB6B012B01D1012300E0002306
:103F5800002B02D102F05CF8FEE702F0CDF802F087
:103F680057F87861BB699A6BBB69DB6B9A4202D3DD
:103F78003B68022B2DD13A68B968B86900F032FA6B
:103F88000346002B05D07B68002B02D07B680122FA
:103F98001A60BB699B6CB3F1FF3F12D1BB695B6AC6
:103FA800002B13D0BB692433184601F05DFA034691
:103FB800002B0BD07B68002B08D07B6801221A608D
:103FC80004E0BB699B6C5A1CBB699A640123FB61C2
:103FD80001E00023FB61786902F024F8FB691846C8
:103FE8002037BD4680BD00BF80B58AB000AFF860FD
:103FF800B9607A603B6000237B62FB683B623B6A86
:10400800002B02D102F004F8FEE7BB68002B03D1B5
:104018003B6A1B6C002B01D1012300E00023002B1D
:1040280002D101F0F5FFFEE701F0A2FD0346002BE7
:1040380002D17B68002B01D1012300E00023002B73
:1040480002D101F0E5FFFEE701F0A8FF3B6A9B6B98
:10405800002B3BD03B6ADB68FB61B968386A00F02B
:104068002DFA3B68002B1CD13B6A9B6B5A1E3B6A9E
:104078009A633B6A1B68002B04D101F091FE02464B
:104088003B6A5A603B6A1B69002B1BD03B6A1033A2
:10409800184601F0E9F90346012B13D101F06CFF32
:1040A80010E03B6AFA69DA603B6A5B6A002B09D068
:1040B8003B6A2433184601F0D7F90346002B01D098
:1040C80001F05AFF01F08AFF012364E07B68002BAE
:1040D80003D101F083FF00235DE07B6A002B06D14A
:1040E80007F11403184601F071FA01237B6201F00D
:1040F80075FF00F0B9FE01F051FF3B6A5B6CB3F14C
:10410800FF3F02D13B6A00225A643B6A9B6CB3F1C1
:10411800FF3F02D13B6A00229A6401F05FFF3A1D1B
:1041280007F114031146184601F06AFA0346002BFA
:104138002BD1386A00F034FA0346002B1FD03B6AB3
:104148001B68002B08D101F029FF3B6A5B68184601
:1041580001F02CFD01F042FF3B6A24337A681146D6
:10416800184601F0E1F8386A00F0CEF900F08AFE4E
:104178000346002B7FF468AF01F0FEFE64E7386A5F
:1041880000F0C2F900F07EFE5EE7386A00F0BCF984
:1041980000F078FE002318462837BD4680BD00BFD2
:1041A80080B588B000AFF860B9607A60FB68BB6121
:1041B800BB69002B02D101F02BFFFEE7BB68002B87
:1041C80003D1BB691B6C002B01D1012300E0002344
:1041D800002B02D101F01CFFFEE701F08DFF01F07A
:1041E80017FF7861BB699B6B002B28D0B968B86949
:1041F80000F064F9BB699B6B5A1EBB699A63BB6983
:104208005B6CB3F1FF3F12D1BB691B69002B13D064
:10421800BB691033184601F027F90346002B0BD071
:104228007B68002B08D07B6801221A6004E0BB6918
:104238005B6C5A1CBB695A640123FB6101E00023D3
:10424800FB61786901F0EEFEFB6918462037BD4630
:1042580080BD00BF80B586B000AF786039607B68EC
:104268003B613B69002B02D101F0D2FEFEE73B68BF
:10427800002B03D13B691B6C002B01D1012300E00B
:104288000023002B02D101F0C3FEFEE701F034FF4A
:1042980001F0BEFEF8603B699B6B002B0CD03B69BC
:1042A800DB68BB603968386900F008F93B69BA68AF
:1042B800DA6001237B6101E000237B61F86801F08B
:1042C800B1FE7B6918461837BD4680BD80B584B0FD
:1042D80000AF78607B68002B02D101F099FEFEE701
:1042E80001F05CFE7B689B6BFB6001F077FEFB686E
:1042F80018461037BD4680BD80B584B000AF7860E1
:104308007B68FB60FB68002B02D101F081FEFEE7B1
:1043180001F044FEFB68DA6BFB689B6BD31ABB6049
:1043280001F05CFEBB6818461037BD4680BD00BF73
:1043380080B584B000AF78607B68002B02D101F0B3
:1043480067FEFEE77B689B6BFB60FB6818461037CF
:10435800BD4680BD80B584B000AF78607B68FB60E7
:10436800FB68002B02D101F053FEFEE7F86800F06D
:104378009FF9FB681B68002B04D0FB681B68184674
:1043880001F032FFF86801F02FFF00BF1037BD467B
:1043980080BD00BF80B483B000AF78607B68DB6C01
:1043A80018460C37BD465DF8047B704780B483B06F
:1043B80000AF786039607B683A68DA6400BF0C3710
:1043C800BD465DF8047B704780B483B000AF786069
:1043D8007B6893F8503018460C37BD465DF8047B6F
:1043E800704700BF80B586B000AFF860B9607A60EA
:1043F80000237B61FB681B6C002B0DD1FB681B68DD
:10440800002B50D1FB685B68184601F045FC7861C9
:10441800FB6800225A6046E07B68002B19D1FB68D4
:104428009868FB681B6C1A46B96818F029FFFB6886
:104438009A68FB681B6C1A44FB689A60FB689A6868
:10444800FB685B689A422ED3FB681A68FB689A601F
:1044580029E0FB68D868FB681B6C1A46B96818F035
:104468000FFFFB68DA68FB681B6C5B421A44FB6849
:10447800DA60FB68DA68FB681B689A4207D2FB6857
:104488005A68FB681B6C5B421A44FB68DA607B68FD
:10449800022B08D1FB689B6B002B04D0FB689B6B3D
:1044A8005A1EFB689A63FB689B6B5A1CFB689A63ED
:1044B8007B6918461837BD4680BD00BF80B582B0FD
:1044C80000AF786039607B681B6C002B18D07B6864
:1044D800DA687B681B6C1A447B68DA607B68DA6888
:1044E8007B685B689A4203D37B681A687B68DA60EA
:1044F8007B68D9687B681B6C1A46386818F0C0FE60
:1045080000BF0837BD4680BD80B582B000AF786077
:1045180001F044FD12E07B685B6A002B13D07B68D6
:104528002433184600F0A0FF0346002B01D001F009
:10453800B7F87B689B6C5A1E7B689A647B689B6C97
:10454800002BE8DC00E000BF7B684FF0FF329A6484
:1045580001F044FD01F022FD12E07B681B69002B8D
:1045680013D07B681033184600F07EFF0346002BFB
:1045780001D001F095F87B685B6C5A1E7B685A6421
:104588007B685B6C002BE8DC00E000BF7B684FF0C9
:10459800FF325A6401F022FD00BF0837BD4680BDD6
:1045A80080B584B000AF786001F0F8FC7B689B6B45
:1045B800002B02D10123FB6001E00023FB6001F026
:1045C8000DFDFB6818461037BD4680BD80B584B028
:1045D80000AF78607B68002B02D101F019FDFEE77F
:1045E8007B689B6B002B02D10123FB6001E0002359
:1045F800FB60FB6818461037BD4680BD80B584B0A7
:1046080000AF786001F0CAFC7B689A6B7B68DB6B53
:104618009A4202D10123FB6001E00023FB6001F014
:10462800DDFCFB6818461037BD4680BD80B584B0F8
:1046380000AF78607B68002B02D101F0E9FCFEE74F
:104648007B689A6B7B68DB6B9A4202D10123FB6023
:1046580001E00023FB60FB6818461037BD4680BDAB
:1046680080B485B000AF786039600023FB6014E047
:104678000E4AFB6852F83330002B0BD10B49FB680C
:104688003A6841F83320094AFB68DB0013447A682A
:104698005A6005E0FB680133FB60FB68072BE7D92C
:1046A80000BF1437BD465DF8047B7047045E0020E8
:1046B80080B485B000AF78600023FB6010E00D4A3D
:1046C800FB68DB0013445A687B689A4205D1094AA3
:1046D800FB68002142F8331005E0FB680133FB60FA
:1046E800FB68072BEBD900BF1437BD465DF8047B88
:1046F800704700BF045E002080B58AB002AFF86042
:10470800B9603B601346FB80FB68002B02D101F0C7
:104718007FFCFEE7BB6A062B02D901F079FCFEE7B5
:10472800FB88396B184601F003F9B861BB69002BA7
:1047380071D0BB691A6BFB8803F18043013B9B0076
:1047480013447B617B6923F007037B617B6903F07A
:104758000703002B02D001F05BFCFEE7FB88009307
:104768007B6BBA6AB968B86900F0E2FF3A68F96821
:10477800786901F029FB0246BB691A60FB6A002BC5
:1047880002D0FB6ABA691A6001F008FC2D4B1B685D
:1047980001332C4A13602C4B1B68002B09D12A4A81
:1047A800BB691360274B1B68012B0FD101F00EF872
:1047B8000CE0264B1B68002B08D1234B1B68DA6AD8
:1047C800BB6A9A4202D8204ABB691360204B1B6817
:1047D80001331F4A13601E4B1A68BB695A64BB69D0
:1047E800DB6A01229A401B4B1B681343194A13606A
:1047F800BB69DA6A13469B0013449B00164A1A44A5
:10480800BB69043319461046FFF7C6F80123FB615C
:1048180001F0E4FB02E04FF0FF33FB61FB69012B81
:104828000BD10A4B1B68002B07D0074B1B68DA6AB1
:10483800BB6A9A4201D201F09FFBFB6918462037F8
:10484800BD4680BDEC0A0020EC090020F80A0020D3
:10485800080B0020F40A0020F009002080B584B07D
:1048680000AF786001F09AFB7B68002B02D12D4BDA
:104878001B6800E07B68FB60FB6804331846FFF7A1
:10488800E9F80346002B15D1FB68DA6A2649134676
:104898009B0013449B000B441B68002B0AD1FB6848
:1048A800DB6A012202FA03F3DA43204B1B68134048
:1048B8001E4A1360FB689B6A002B04D0FB68183300
:1048C8001846FFF7C7F8FB68043319461848FFF77E
:1048D80063F8184B1B680133164A1360164B1B68A4
:1048E8000133154A136001F079FB144B1B68002B48
:1048F80014D00C4B1B68FA689A4209D1104B1B68FC
:10490800002B02D001F084FBFEE701F035FB05E047
:1049180001F044FB01F0F6F801F060FB00BF10372E
:10492800BD4680BDEC090020F0090020F40A0020F3
:10493800C00A0020D40A0020080B0020F80A002032
:104948000C0B002080B584B000AF78600023FB60BA
:104958007B68002B28D0194B1B68002B02D001F074
:1049680057FBFEE700F080FA154B1A687B68134482
:10497800BB60144B1B6804331846FFF76BF80346FB
:10498800002B0BD10F4B1B68DB6A012202FA03F3E1
:10499800DA430D4B1B6813400B4A1360B86800F0EC
:1049A80091FF00F06FFAF860FB68002B01D101F06D
:1049B800E3FA00BF1037BD4680BD00BF0C0B0020D6
:1049C800F00A0020EC090020F40A002080B584B029
:1049D80000AF786001F0E2FA7B68002B02D1074B48
:1049E8001B6800E07B68FB60FB68DB6ABB6001F06A
:1049F800F5FABB6818461037BD4680BDEC090020A3
:104A080080B586B000AF7860396000237B613B6871
:104A1800062B02D901F0FCFAFEE73B68062B01D908
:104A280006233B6001F0BAFA7B68002B02D1404BA9
:104A38001B6800E07B683B613B69DB6CFB60FA68E4
:104A48003B689A426ED03A68FB689A420DD9384B57
:104A58001B683A699A420FD0354B1B68DA6A3B6883
:104A68009A4209D801237B6106E0314B1B683A69F9
:104A78009A4201D101237B613B69DB6ABB603B69D8
:104A8800DA6C3B69DB6A9A4202D13B693A68DA62BE
:104A98003B693A68DA643B699B69002B04DB3B6835
:104AA800C3F107023B699A613B695969BA681346C1
:104AB8009B0013449B001F4A1344994201D10123D0
:104AC80000E00023002B28D03B6904331846FEF78A
:104AD800C1FF0346002B09D10122BB6802FA03F388
:104AE800DA43154B1B681340134A13603B69DB6AB2
:104AF80001229A40104B1B6813430F4A13603B690D
:104B0800DA6A13469B0013449B000A4A1A443B691D
:104B1800043319461046FEF73FFF7B69012B01D18C
:104B280001F02AFA01F05AFA00BF1837BD4680BDD5
:104B3800EC090020F0090020F40A002080B584B0B8
:104B480000AF786001F02AFA7B68002B02D1314B64
:104B58001B6800E07B68FB60FB6804331846FEF7BF
:104B680079FF0346002B15D1FB68DA6A2A491346F8
:104B78009B0013449B000B441B68002B0AD1FB6865
:104B8800DB6A012202FA03F3DA43244B1B68134061
:104B9800224A1360FB689B6A002B04D0FB68183319
:104BA8001846FEF757FFFB68043319461C48FEF702
:104BB800F3FE01F013FA174B1B68FA689A421AD1F0
:104BC800184B1B68002B09D0174B1B68002B02D011
:104BD80001F01EFAFEE701F0CFF916E0104B1A6853
:104BE800124B1B689A4203D10A4B00221A600CE050
:104BF80000F038FB09E00B4B1B68002B05D001F0D7
:104C0800CDF900F07FFF01F0E9F900BF1037BD468C
:104C180080BD00BFEC090020F0090020F40A002044
:104C2800D80A0020F80A00200C0B0020EC0A00200B
:104C380080B584B000AF78600023FB607B68BB6000
:104C48007B68002B02D101F0E3F9FEE7BB685B69E2
:104C58000E4A934201D1012300E00023002B0FD01C
:104C6800BB689B6A0A4A93420AD0BB689B6A002BBE
:104C780001D1012300E00023002B01D00123FB60B8
:104C8800FB6818461037BD4680BD00BFD80A002013
:104C9800AC0A002080B584B000AF78607B68FB6008
:104CA8007B68002B02D101F0B3F9FEE7FB68002B0B
:104CB80033D01C4B1B68FA689A422ED001F06EF96B
:104CC800F868FFF7B5FF0346012B24D1FB680433CE
:104CD8001846FEF7BFFEFB68DB6A01229A40124BBA
:104CE8001B681343104A1360FB68DA6A13469B007B
:104CF80013449B000D4A1A44FB68043319461046B6
:104D0800FEF74AFEFB68DA6A064B1B68DB6A9A42C2
:104D180001D301F031F901F061F900BF1037BD4648
:104D280080BD00BFEC090020F40A0020F009002033
:104D380080B586B000AF786000237B617B683B61FB
:104D48007B68002B02D101F063F9FEE701F0D4F98A
:104D580001F05EF9F8603869FFF76AFF0346012B36
:104D68002FD11C4B1B68002B25D13B69DA6A1A4BE3
:104D78001B68DB6A9A4201D301237B613B690433D8
:104D88001846FEF767FE3B69DB6A01229A40134B1F
:104D98001B681343114A13603B69DA6A13469B0088
:104DA80013449B000E4A1A443B69043319461046C3
:104DB800FEF7F2FD05E03B69183319460948FEF78E
:104DC800EBFDF86801F02EF97B6918461837BD46E7
:104DD80080BD00BF0C0B0020EC090020F40A002065
:104DE800F0090020AC0A002080B586B004AF00238B
:104DF80003930023029300230193002300930023CD
:104E080080220E490E48FFF777FC78607B68012BFB
:104E18000AD101F0FDF80B4B01221A600A4B00225F
:104E28001A6001F033F805E07B68002B02D101F02D
:104E3800EFF8FEE700BF0837BD4680BD14DF010864
:104E480015570008F80A0020F00A002080B500AFC6
:104E580001F0DEF8034B00221A6001F07FF800BF72
:104E680080BD00BFF80A002080B400AF044B1B6867
:104E78000133034A136000BFBD465DF8047B7047E9
:104E88000C0B002080B582B000AF00237B60374B4D
:104E98001B68002B02D101F0BBF8FEE701F07EF899
:104EA800324B1B68013B314A1360304B1B68002BA7
:104EB80055D12F4B1B68002B51D02EE02D4BDB68B2
:104EC800DB683B603B6818331846FEF7C3FD3B6858
:104ED80004331846FEF7BEFD3B68DB6A01229A40A0
:104EE800254B1B681343244A13603B68DA6A134650
:104EF8009B0013449B00214A1A443B68043319461B
:104F08001046FEF749FD3B68DA6A1D4B1B68DB6AF1
:104F18009A4202D31B4B01221A60164B1B68002BC6
:104F2800CCD1194B1B68002B11D00CE000F0DCF839
:104F38000346002B02D0134B01221A60124B1B6848
:104F4800013B114A1360104B1B68002BEED10D4B2F
:104F58001B68012B03D101237B6001F00DF801F0E0
:104F68003DF87B6818460837BD4680BD0C0B00200D
:104F7800EC0A0020AC0A0020F40A0020F009002006
:104F8800EC090020000B0020FC0A002080B582B04C
:104F980000AF01F003F8054B1B687B6001F01EF8B9
:104FA8007B6818460837BD4680BD00BFF00A002060
:104FB80080B582B000AF01F09FF801F029F8786061
:104FC800054B1B683B60786801F02CF83B68184675
:104FD8000837BD4680BD00BFF00A002080B400AF8E
:104FE800034B1B681846BD465DF8047B704700BF3D
:104FF800EC0A002080B586B000AFF860B9607A602E
:1050080000237B6107233B61FFF72EFF304B1B68B2
:10501800BA689A4254D33B69013B3B617B695B01A7
:10502800FA68D0183A6913469B0013449B00294A32
:1050380013440122194600F0ADFC02467B69134473
:105048007B613B69002BE6D17B695B01FA68D0186C
:10505800214B1B680222194600F09CFC02467B6922
:1050680013447B617B695B01FA68D0181B4B1B6892
:105078000222194600F08EFC02467B6913447B61CC
:105088007B695B01FA68134404221549184600F04D
:1050980081FC02467B6913447B617B695B01FA688A
:1050A800134403220F49184600F074FC02467B693A
:1050B80013447B617B68002B02D07B6800221A6056
:1050C800FFF7E0FE7B6918461837BD4680BD00BF74
:1050D800EC0A0020F0090020A40A0020A80A0020F9
:1050E800C00A0020D80A002080B586B000AF00238F
:1050F8007B61514B1B68002B40F08C804F4B1B6829
:1051080001334E4A13604D4B1B683B613B69002BD2
:1051180018D14B4B1B681B68002B02D000F078FF9E
:10512800FEE7474B1B68FB60464B1B68444A13600D
:10513800444AFB681360444B1B680133424A1360BE
:1051480000F0E0FC414B1B683A699A424DD33C4B56
:105158001B681B68002B01D1012300E00023002BF2
:1051680004D03A4B4FF0FF321A603EE0344B1B68D4
:10517800DB68DB68BB60BB685B687B603A697B683F
:105188009A4203D2314A7B6813602EE0BB6804332D
:105198001846FEF75FFCBB689B6A002B04D0BB680F
:1051A80018331846FEF756FCBB68DB6A01229A40A2
:1051B800274B1B681343264A1360BB68DA6A1346F9
:1051C8009B0013449B00234A1A44BB6804331946C6
:1051D8001046FEF7E1FBBB68DA6A1F4B1B68DB6A07
:1051E8009A42B4D301237B61B1E71B4B1B68DA6A8F
:1051F800184913469B0013449B000B441B68012B62
:1052080001D901237B61154B1B68002B09D1FBF7E2
:1052180087FD06E0114B1B680133104A1360FBF74A
:105228007FFD0F4B1B68002B01D001237B617B693D
:1052380018461837BD4680BD0C0B0020F00A002028
:10524800A40A0020A80A0020040B00204000002027
:10525800F40A0020F0090020EC090020FC0A0020D4
:10526800000B002080B584B000AF2A4B1B68002BD0
:1052780003D0294B01221A6048E0274B00221A600C
:10528800264B1B681A68254B1B681B6B9A4208D86B
:10529800224B1A68214B1B68343319461046FBF71A
:1052A80031FD1F4B1B687B607B68B3FA83F3FB708F
:1052B800FB78C3F11F03FB601A49FA6813469B0089
:1052C80013449B000B441B68002B02D100F0A0FE86
:1052D800FEE7FA6813469B0013449B00114A1344E7
:1052E800BB60BB685B685A68BB685A60BB685A6831
:1052F800BB6808339A4204D1BB685B685A68BB68CC
:105308005A60BB685B68DB68044A136000BF1037EB
:10531800BD4680BD0C0B0020000B0020EC090020CE
:10532800F40A0020F009002080B584B000AF78604E
:1053380039607B68002B02D100F06AFEFEE71A4B49
:105348001B68183319467868FEF74AFB164B1B682A
:1053580004331846FEF77EFB0346002B0BD1124B95
:105368001B68DB6A012202FA03F3DA430F4B1B685E
:1053780013400E4A13603B68B3F1FF3F07D10A4B55
:105388001B68043319460A48FEF706FB07E0094B79
:105398001A683B681344FB60F86800F093FA00BF92
:1053A8001037BD4680BD00BFEC090020F40A00207C
:1053B800D80A0020F00A002080B586B000AFF86057
:1053C800B9607A60FB68002B02D100F021FEFEE78D
:1053D800204B1B68002B02D100F01AFEFEE71E4B83
:1053E8001B68BA6842F000429A611B4B1B6818336D
:1053F8001946F868FEF7D0FA174B1B6804331846AD
:10540800FEF728FB0346002B0BD1134B1B68DB6A06
:10541800012202FA03F3DA43104B1B6813400F4AC8
:1054280013607B68B3F1FF3F07D10B4B1B68043354
:1054380019460B48FEF7B0FA07E00A4B1A687B6872
:1054480013447B61786900F03DFA00BF1837BD4608
:1054580080BD00BF0C0B0020EC090020F40A0020DE
:10546800D80A0020F00A002080B584B000AF786028
:105478007B68DB68DB68BB60BB68002B02D100F08F
:10548800C7FDFEE7BB6818331846FEF7E3FA1D4B65
:105498001B68002B1CD1BB6804331846FEF7DAFAE8
:1054A800BB68DB6A01229A40174B1B681343164AF4
:1054B8001360BB68DA6A13469B0013449B00134AC7
:1054C8001A44BB68043319461046FEF765FA05E02E
:1054D800BB68183319460E48FEF75EFABB68DA6AED
:1054E8000C4B1B68DB6A9A4205D90123FB600A4B07
:1054F80001221A6001E00023FB60FB6818461037A0
:10550800BD4680BD0C0B0020F40A0020F0090020E5
:10551800AC0A0020EC090020000B002080B584B004
:1055280000AF78603960244B1B68002B02D100F073
:105538006FFDFEE73B6843F000427B681A607B68BA
:10554800DB68BB60BB68002B02D100F061FDFEE7A1
:105558007868FEF77FFABB6804331846FEF77AFAD4
:10556800BB68DB6A01229A40144B1B681343134A39
:105578001360BB68DA6A13469B0013449B00104A09
:105588001A44BB68043319461046FEF705FABB688F
:10559800DA6A0C4B1B68DB6A9A4205D90123FB6067
:1055A800094B01221A6001E00023FB60FB681846E2
:1055B8001037BD4680BD00BF0C0B0020F40A002048
:1055C800F0090020EC090020000B002080B582B013
:1055D80000AF78607B68002B02D100F019FDFEE770
:1055E800054B1A687B681A60044B1A687B685A6016
:1055F80000BF0837BD4680BD040B0020F00A00201C
:1056080080B584B000AF786039607B68002B02D128
:1056180000F0FEFCFEE73B68002B02D100F0F8FC2E
:10562800FEE700F0BBFC1C4B1B68BB603B681B68BB
:10563800B3F1FF3F02D10023FB6026E07B681A68C4
:10564800164B1B689A4207D07B685A68BB689A4217
:1056580002D80123FB6018E07B685B68BA68D21A3D
:105668003B681B689A420ED23B681A687B68596887
:10567800BB68CB1A1A443B681A607868FFF7A6FF24
:105688000023FB6001E00123FB6000F0A7FCFB683E
:1056980018461037BD4680BDF00A0020040B0020D4
:1056A80080B400AF034B01221A6000BFBD465DF80D
:1056B800047B7047000B002080B485B000AF786091
:1056C8007B68002B05D07B68BB60BB689B6CFB606C
:1056D80001E00023FB60FB6818461437BD465DF8FF
:1056E800047B704780B485B000AF786039607B6810
:1056F800002B04D07B68FB60FB683A689A6400BFA3
:105708001437BD465DF8047B704700BF80B582B092
:1057180000AF786000F09AF8044B1B68012B01D9A0
:1057280000F02AFCFBF7F4FAF4E700BFF0090020C8
:1057380080B586B000AFF860B9607A603B6000233E
:105748007B6112E0BA687B6913441978FA687B694F
:10575800134434330A461A70BA687B6913441B78B9
:10576800002B06D07B6901337B617B690F2BE9D95C
:1057780000E000BFFB68002283F843207B68062B0B
:1057880001D906237B60FB687A68DA62FB687A686D
:10579800DA64FB6800221A65FB6804331846FEF7D2
:1057A800EDF8FB6818331846FEF7E8F8FB68FA6866
:1057B8001A617B68C3F10702FB689A61FB68FA68A3
:1057C8005A6200BF1837BD4680BD00BF80B582B0A1
:1057D80000AF00237B600CE07A6813469B001344FB
:1057E8009B00124A13441846FEF7A8F87B68013359
:1057F8007B607B68062BEFD90D48FEF79FF80D48B4
:10580800FEF79CF80C48FEF799F80C48FEF796F856
:105818000B48FEF793F80B4B054A1A600A4B054AEA
:105828001A6000BF0837BD4680BD00BFF0090020E0
:105838007C0A0020900A0020AC0A0020C00A002040
:10584800D80A0020A40A0020A80A002080B582B047
:1058580000AF28E0FFF708FB174B1B68002B0CBFB5
:1058680001230023DBB27B60FFF70CFB7B68002B76
:1058780019D100F093FB104BDB68DB683B603B6899
:1058880004331846FEF7E6F80C4B1B68013B0B4A3D
:1058980013600B4B1B68013B094A136000F09EFB29
:1058A800386800F01FF9064B1B68002BD2D100BFE7
:1058B8000837BD4680BD00BFC00A0020EC0A0020A2
:1058C800D40A002080B582B000AF7860134B1B6803
:1058D8007A685A60124B1B687A689A4209D2114B4F
:1058E8001A680E4B1B68043319461046FEF778F801
:1058F80010E00D4B1A68094B1B6804331946104613
:10590800FEF76EF8094B1B687A689A4202D2074A7A
:105918007B68136000BF0837BD4680BDEC090020D6
:10592800F00A0020A80A0020A40A00204000002055
:1059380080B584B000AF03463960FB80542000F086
:105948000DFCF860FB68002B1ED03B68002B06D1CD
:10595800FB889B00184600F001FC034600E03B680A
:10596800FA681363FB681B6B002B05D1F86800F01D
:105978003BFC0023FB6007E0FB68186BFB889B007F
:105988001A46A52117F03EFDFB6818461037BD469C
:1059980080BD00BF90B58BB000AFF860B96013460A
:1059A800FB7100237B62BB681B68002B78D0BB6847
:1059B8003B623B6A5B685A683B6A5A603B6A5A6852
:1059C8003B6A08339A4204D13B6A5B685A683B6A6F
:1059D8005A603B6A5B68DB68FB61BB68BB61BB699B
:1059E8005B685A68BB695A60BB695A68BB69083307
:1059F8009A4204D1BB695B685A68BB695A60BB6943
:105A08005B68DB687B617B6A5B01FA6813447A69CF
:105A18001A607B6A5B01FA6813447A6934325A6007
:105A28007B6A5B01FA6813447A69526C9A607B6AF4
:105A38005B01FA681344FA791A737B6A5B01FA68A6
:105A480013447A69D26A1A61FB79032B09D17B69FD
:105A58009B6A002B05D07B6A5B01FA68134402221B
:105A68001A737B6A5B01FA6813447A69D26C5A61CB
:105A78007B6A5B01FA68134400229A617B6A5B01C6
:105A8800FA68D4187B691B6B184600F00FF80346B8
:105A9800A3837B6A01337B627A69FB699A429CD152
:105AA8007B6A18462C37BD4690BD00BF80B485B0D0
:105AB80000AF78600023FB6005E07B6801337B6002
:105AC800FB680133FB607B681B78A52BF5D0FB686E
